{
  "_format": "hh-sol-artifact-1",
  "contractName": "Assessment",
  "sourceName": "contracts/Assessment.sol",
  "abi": [
    {
      "inputs": [],
      "stateMutability": "nonpayable",
      "type": "constructor"
    },
    {
      "inputs": [
        {
          "internalType": "address",
          "name": "",
          "type": "address"
        }
      ],
      "name": "balances",
      "outputs": [
        {
          "internalType": "uint256",
          "name": "",
          "type": "uint256"
        }
      ],
      "stateMutability": "view",
      "type": "function"
    },
    {
      "inputs": [
        {
          "internalType": "address",
          "name": "_buyer",
          "type": "address"
        }
      ],
      "name": "checkTokenBalance",
      "outputs": [
        {
          "internalType": "uint256",
          "name": "",
          "type": "uint256"
        }
      ],
      "stateMutability": "view",
      "type": "function"
    },
    {
      "inputs": [],
      "name": "checkTokenPrice",
      "outputs": [
        {
          "internalType": "uint256",
          "name": "",
          "type": "uint256"
        }
      ],
      "stateMutability": "view",
      "type": "function"
    },
    {
      "inputs": [],
      "name": "owner",
      "outputs": [
        {
          "internalType": "address",
          "name": "",
          "type": "address"
        }
      ],
      "stateMutability": "view",
      "type": "function"
    },
    {
      "inputs": [
        {
          "internalType": "uint256",
          "name": "_numberOfTokens",
          "type": "uint256"
        }
      ],
      "name": "purchaseToken",
      "outputs": [],
      "stateMutability": "payable",
      "type": "function"
    },
    {
      "inputs": [],
      "name": "sellPrice",
      "outputs": [
        {
          "internalType": "uint256",
          "name": "",
          "type": "uint256"
        }
      ],
      "stateMutability": "view",
      "type": "function"
    },
    {
      "inputs": [
        {
          "internalType": "uint256",
          "name": "_numberOfTokens",
          "type": "uint256"
        }
      ],
      "name": "sellToken",
      "outputs": [],
      "stateMutability": "nonpayable",
      "type": "function"
    },
    {
      "inputs": [],
      "name": "tokenPrice",
      "outputs": [
        {
          "internalType": "uint256",
          "name": "",
          "type": "uint256"
        }
      ],
      "stateMutability": "view",
      "type": "function"
    },
    {
      "inputs": [],
      "name": "totalSupply",
      "outputs": [
        {
          "internalType": "uint256",
          "name": "",
          "type": "uint256"
        }
      ],
      "stateMutability": "view",
      "type": "function"
    }
  ],
  "bytecode": "0x608060405234801561001057600080fd5b50336000806101000a81548173ffffffffffffffffffffffffffffffffffffffff021916908373ffffffffffffffffffffffffffffffffffffffff160217905550662386f26fc100006001819055506103e860028190555066354a6ba7a18000600381905550610a86806100856000396000f3fe6080604052600436106100865760003560e01c806334d9e5ac1161005957806334d9e5ac146101595780634b750334146101845780637ff9b596146101af5780638da5cb5b146101da578063c2db2c421461020557610086565b8063126cbe601461008b57806318160ddd146100c85780632397e4d7146100f357806327e235e31461011c575b600080fd5b34801561009757600080fd5b506100b260048036038101906100ad91906105cd565b610221565b6040516100bf91906107af565b60405180910390f35b3480156100d457600080fd5b506100dd61026a565b6040516100ea91906107af565b60405180910390f35b3480156100ff57600080fd5b5061011a600480360381019061011591906105fa565b610270565b005b34801561012857600080fd5b50610143600480360381019061013e91906105cd565b610401565b60405161015091906107af565b60405180910390f35b34801561016557600080fd5b5061016e610419565b60405161017b91906107af565b60405180910390f35b34801561019057600080fd5b50610199610423565b6040516101a691906107af565b60405180910390f35b3480156101bb57600080fd5b506101c4610429565b6040516101d191906107af565b60405180910390f35b3480156101e657600080fd5b506101ef61042f565b6040516101fc91906106f4565b60405180910390f35b61021f600480360381019061021a91906105fa565b610453565b005b6000600460008373ffffffffffffffffffffffffffffffffffffffff1673ffffffffffffffffffffffffffffffffffffffff168152602001908152602001600020549050919050565b60025481565b80600460003373ffffffffffffffffffffffffffffffffffffffff1673ffffffffffffffffffffffffffffffffffffffff1681526020019081526020016000205410156102f2576040517f08c379a00000000000000000000000000000000000000000000000000000000081526004016102e99061070f565b60405180910390fd5b6000600354826103029190610831565b905080471015610347576040517f08c379a000000000000000000000000000000000000000000000000000000000815260040161033e9061072f565b60405180910390fd5b81600460003373ffffffffffffffffffffffffffffffffffffffff1673ffffffffffffffffffffffffffffffffffffffff1681526020019081526020016000206000828254610396919061088b565b9250508190555081600260008282546103af91906107db565b925050819055503373ffffffffffffffffffffffffffffffffffffffff166108fc829081150290604051600060405180830381858888f193505050501580156103fc573d6000803e3d6000fd5b505050565b60046020528060005260406000206000915090505481565b6000600154905090565b60035481565b60015481565b60008054906101000a900473ffffffffffffffffffffffffffffffffffffffff1681565b60008111610496576040517f08c379a000000000000000000000000000000000000000000000000000000000815260040161048d9061074f565b60405180910390fd5b6000600154826104a69190610831565b9050803410156104eb576040517f08c379a00000000000000000000000000000000000000000000000000000000081526004016104e29061078f565b60405180910390fd5b816002541015610530576040517f08c379a00000000000000000000000000000000000000000000000000000000081526004016105279061076f565b60405180910390fd5b81600460003373ffffffffffffffffffffffffffffffffffffffff1673ffffffffffffffffffffffffffffffffffffffff168152602001908152602001600020600082825461057f91906107db565b925050819055508160026000828254610598919061088b565b925050819055505050565b6000813590506105b281610a22565b92915050565b6000813590506105c781610a39565b92915050565b6000602082840312156105e3576105e261092a565b5b60006105f1848285016105a3565b91505092915050565b6000602082840312156106105761060f61092a565b5b600061061e848285016105b8565b91505092915050565b610630816108bf565b82525050565b6000610643601b836107ca565b915061064e8261092f565b602082019050919050565b60006106666020836107ca565b915061067182610958565b602082019050919050565b6000610689602a836107ca565b915061069482610981565b604082019050919050565b60006106ac601b836107ca565b91506106b7826109d0565b602082019050919050565b60006106cf6017836107ca565b91506106da826109f9565b602082019050919050565b6106ee816108f1565b82525050565b60006020820190506107096000830184610627565b92915050565b6000602082019050818103600083015261072881610636565b9050919050565b6000602082019050818103600083015261074881610659565b9050919050565b600060208201905081810360008301526107688161067c565b9050919050565b600060208201905081810360008301526107888161069f565b9050919050565b600060208201905081810360008301526107a8816106c2565b9050919050565b60006020820190506107c460008301846106e5565b92915050565b600082825260208201905092915050565b60006107e6826108f1565b91506107f1836108f1565b9250827fffffffffffffffffffffffffffffffffffffffffffffffffffffffffffffffff03821115610826576108256108fb565b5b828201905092915050565b600061083c826108f1565b9150610847836108f1565b9250817fffffffffffffffffffffffffffffffffffffffffffffffffffffffffffffffff04831182151516156108805761087f6108fb565b5b828202905092915050565b6000610896826108f1565b91506108a1836108f1565b9250828210156108b4576108b36108fb565b5b828203905092915050565b60006108ca826108d1565b9050919050565b600073ffffffffffffffffffffffffffffffffffffffff82169050919050565b6000819050919050565b7f4e487b7100000000000000000000000000000000000000000000000000000000600052601160045260246000fd5b600080fd5b7f496e73756666696369656e7420746f6b656e732062616c616e63650000000000600082015250565b7f436f6e74726163742062616c616e636520697320696e73756666696369656e74600082015250565b7f4e756d626572206f6620746f6b656e73206d757374206265206772656174657260008201527f207468616e207a65726f00000000000000000000000000000000000000000000602082015250565b7f4e6f7420656e6f75676820746f6b656e7320617661696c61626c650000000000600082015250565b7f496e73756666696369656e742066756e64732073656e74000000000000000000600082015250565b610a2b816108bf565b8114610a3657600080fd5b50565b610a42816108f1565b8114610a4d57600080fd5b5056fea2646970667358221220bfce675d4f6e3af96a85a13dd0cf6c7f46300bff59869cdfe6f9819faf60c65464736f6c63430008070033",
  "linkReferences": {},
  "deployedLinkReferences": {}
}